123456789 +00   +001DENG     12   -50+0120020301+0000000123456+0000000231356+0000000000000+0000000123456+0000000231356+0000000000000+000000000000000000000+000000035481210+00000002000043016461815IKOPG   IKOPG   0+0000000000000+00000000000002000043016461815IKOPG   U00000000000  00000000000000  +000500000012121 1020301
123456789 +00   +002XIAO     21   +00+1019021010+0000000654321+0000000321564+0000000000000+0000000654321+0000000321564+0000000654321+000000032156419021010+000000000000000+00000002000043016461815IKOPG   IKOPG   5+0000000000000+00000000000002000043016461815IKOPG   W51000000000  19021010000000  +00050000001211230021010
112223334 +00   +001DENG     12   +00+2020981020+0000000006540+0000000006456+0000000000000+0000000006540+0000000006456+0000000000000+000000000000000000000+000000001299600+00000002000043016461815IKOPG   IKOPG   5+0000000000000+00000000000002000043016461815IKOPG   000000000000  00000000000000  +00050000001210001981020
112223334 +00   +002DENG     12   -92+2019051020+0000000000564+0000000000897+0000000000000+0000000000564+0000000000897+0000000000564+000000000089719051020+000000000000000+00000002000043016461815IKOPG   IKOPG   0+0000000000000+00000000000002000043016461815IKOPG   000000000000  19051020000000  +00050000001210000051020
112223334 +00   +003DENG     12   +92+1020101010+0000000000211+0000000000545+0000000000000+0000000000211+0000000000545+0000000000000+000000000000000000000+000000000075610+00000002000043016461815IKOPG   IKOPG   5+0000000000000+00000000000002000043016461815IKOPG   000000000000  00000000000000  +00050000001210001101010
222222222 +00   +001XIAO     21   +49+1020000210+0000000000123+0000000000321+0000000000000+0000000000123+0000000000321+0000000000000+000000000000000000000+000000000044410+00000002000043016461815IKOPG   IKOPG   0+0000000000000+00000000000002000043016461815IKOPG   000000000000  00000000000000  +00050000001220001000210
333333333 +00   +001DENG     12   -50+0120020301+0000000001265+0000000000564+0000000000000+0000000001265+0000000000564+0000000000000+000000000000000000000+000000000182900+00000002000043016461815IKOPG   IKOPG   0+0000000000000+00000000000002000043016461815IKOPG   U00000000000  00000000000000  +000500000012121 1020301
