311221                                       1234     3456 12234          1  050420121 　　　　　　　　　　　　　　　　　　　　02      021212     1 2                                                                               1                                                                               1                                                           1                                                           000000000031A000000000121A000000000033C000000000031A
411221                                       1234     3456 12234          1  050420121 　　　　　　　　　　　　　　　　　　　　02      021212     1 2                                                                               1                                                                               1                                                           1                                                           000000000000A000000000000A000000000001C000000000001Q
321222SDFS                                   1235     56GH 12234          21 050420121 　　　　　　　　　　　　　　　　　　　　03      021212     1 SDF                                                                             fsdf                                                                            1                                                           1                                                           000000000031A000000000121A000000000033C000000000031A
421222SDFS                                   1235     56GH 12234          21 050420121 　　　　　　　　　　　　　　　　　　　　03      021212     1 SDF                                                                             fsdf                                                                            1                                                           1                                                           000000000000A000000000000A000000000001C000000000001Q
