311221                                       1234     3456 12234          1  050420121 契約番号１　　　　　　　　　　　　　　　0231    021212     1 2                                                                               1                                                                               1                                                           1                                                           000000000031A000000000121A000000000033C000000000031A
311221                                       1234     3456 12234          1  050420121 契約番号１　　　　　　　　　　　　　　　0231    021212     1 2                                                                               1                                                                               1                                                           1                                                           000000000000A000000000000A000000000033C000000000031A
311222SDFS                                   1235     56GH 12234          21 050420121 契約番号１　　　　　　　　　　　　　　　0331    021212     1 SDF                                                                             fsdf                                                                            1                                                           1                                                           000000000031A000000000121A000000000033C000000000031A
411222SDFS                                   1235     56GH 12234          21 050420121 契約番号１　　　　　　　　　　　　　　　0331    021212     1 SDF                                                                             fsdf                                                                            1                                                           1                                                           000000000000A000000000000A000000000033C000000000031A
