111221                                       1234     3456 12234          1  050420121 契約　　　　　　　　　　　　　　　　　　0231    021212     1 2                                                                               1                                                                               私                                                          私                                                          000000000031A000000000121A000000000033C000000000031A
211221                                       1234     3456 12234          1  050420121 契約　　　　　　　　　　　　　　　　　　0231    021212     1 2                                                                               1                                                                               私                                                          私                                                          000000000000A000000000000A000000000001C000000000001Q
311222SDFS                                   1235     56GH 12234          21 050420121 契約　　　　　　　　　　　　　　　　　　0331    021212     1 SDF                                                                             fsdf                                                                            私                                                          私                                                          000000000031A000000000121A000000000033C000000000031A
411222SDFS                                   1235     56GH 12234          21 050420121 契約　　　　　　　　　　　　　　　　　　0331    021212     1 SDF                                                                             fsdf                                                                            私                                                          私                                                          000000000000A000000000000A000000000001C000000000001Q
