31122                                        1234     3456 002            2  050420121 債権契約件名　　　　　　　　　　　　　　0231    021212     1                                                                                                                                                                 GSJ                                                         TONG                                                        000000000031A000000000121A000000000033C000000000031A
41122                                        1234     3456 002            2  050420121 債権契約件名　　　　　　　　　　　　　　0231    021212     1                                                                                                                                                                 GSJ                                                         TONG                                                        000000000000A000000000000A000000000001C000000000001Q
111222GSJ                                    1235     G002 003            3  050420121 債権契約件名　　　　　　　　　　　　　　0331    021212     1 D0003                                                                                                                                                           GSJ                                                         TONG                                                        000000000031A000000000121A000000000033C000000000031A
211222GSJ                                    1235     G002 003            3  050420121 債権契約件名　　　　　　　　　　　　　　0331    021212     1 D0003                                                                                                                                                           GSJ                                                         TONG                                                        000000000000A000000000000A000000000001C000000000001Q
